{
  "_format": "hh-sol-artifact-1",
  "contractName": "Domains",
  "sourceName": "contracts/Domains.sol",
  "abi": [
    {
      "inputs": [
        {
          "internalType": "string",
          "name": "_tld",
          "type": "string"
        }
      ],
      "stateMutability": "payable",
      "type": "constructor"
    },
    {
      "inputs": [],
      "name": "AlreadyRegistered",
      "type": "error"
    },
    {
      "inputs": [
        {
          "internalType": "string",
          "name": "name",
          "type": "string"
        }
      ],
      "name": "InvalidName",
      "type": "error"
    },
    {
      "inputs": [],
      "name": "Unauthorized",
      "type": "error"
    },
    {
      "anonymous": false,
      "inputs": [
        {
          "indexed": true,
          "internalType": "address",
          "name": "owner",
          "type": "address"
        },
        {
          "indexed": true,
          "internalType": "address",
          "name": "approved",
          "type": "address"
        },
        {
          "indexed": true,
          "internalType": "uint256",
          "name": "tokenId",
          "type": "uint256"
        }
      ],
      "name": "Approval",
      "type": "event"
    },
    {
      "anonymous": false,
      "inputs": [
        {
          "indexed": true,
          "internalType": "address",
          "name": "owner",
          "type": "address"
        },
        {
          "indexed": true,
          "internalType": "address",
          "name": "operator",
          "type": "address"
        },
        {
          "indexed": false,
          "internalType": "bool",
          "name": "approved",
          "type": "bool"
        }
      ],
      "name": "ApprovalForAll",
      "type": "event"
    },
    {
      "anonymous": false,
      "inputs": [
        {
          "indexed": true,
          "internalType": "address",
          "name": "from",
          "type": "address"
        },
        {
          "indexed": true,
          "internalType": "address",
          "name": "to",
          "type": "address"
        },
        {
          "indexed": true,
          "internalType": "uint256",
          "name": "tokenId",
          "type": "uint256"
        }
      ],
      "name": "Transfer",
      "type": "event"
    },
    {
      "inputs": [
        {
          "internalType": "address",
          "name": "to",
          "type": "address"
        },
        {
          "internalType": "uint256",
          "name": "tokenId",
          "type": "uint256"
        }
      ],
      "name": "approve",
      "outputs": [],
      "stateMutability": "nonpayable",
      "type": "function"
    },
    {
      "inputs": [
        {
          "internalType": "address",
          "name": "owner",
          "type": "address"
        }
      ],
      "name": "balanceOf",
      "outputs": [
        {
          "internalType": "uint256",
          "name": "",
          "type": "uint256"
        }
      ],
      "stateMutability": "view",
      "type": "function"
    },
    {
      "inputs": [
        {
          "internalType": "string",
          "name": "",
          "type": "string"
        }
      ],
      "name": "domains",
      "outputs": [
        {
          "internalType": "address",
          "name": "",
          "type": "address"
        }
      ],
      "stateMutability": "view",
      "type": "function"
    },
    {
      "inputs": [
        {
          "internalType": "string",
          "name": "name",
          "type": "string"
        }
      ],
      "name": "getAddress",
      "outputs": [
        {
          "internalType": "address",
          "name": "",
          "type": "address"
        }
      ],
      "stateMutability": "view",
      "type": "function"
    },
    {
      "inputs": [],
      "name": "getAllNames",
      "outputs": [
        {
          "internalType": "string[]",
          "name": "",
          "type": "string[]"
        }
      ],
      "stateMutability": "view",
      "type": "function"
    },
    {
      "inputs": [
        {
          "internalType": "uint256",
          "name": "tokenId",
          "type": "uint256"
        }
      ],
      "name": "getApproved",
      "outputs": [
        {
          "internalType": "address",
          "name": "",
          "type": "address"
        }
      ],
      "stateMutability": "view",
      "type": "function"
    },
    {
      "inputs": [
        {
          "internalType": "string",
          "name": "addr",
          "type": "string"
        }
      ],
      "name": "getRecord",
      "outputs": [
        {
          "internalType": "string",
          "name": "",
          "type": "string"
        }
      ],
      "stateMutability": "view",
      "type": "function"
    },
    {
      "inputs": [
        {
          "internalType": "address",
          "name": "addr",
          "type": "address"
        }
      ],
      "name": "getTransactions",
      "outputs": [
        {
          "components": [
            {
              "internalType": "address",
              "name": "from",
              "type": "address"
            },
            {
              "internalType": "string",
              "name": "txn",
              "type": "string"
            },
            {
              "internalType": "uint256",
              "name": "matic",
              "type": "uint256"
            },
            {
              "internalType": "string",
              "name": "message",
              "type": "string"
            },
            {
              "internalType": "uint256",
              "name": "timestamp",
              "type": "uint256"
            }
          ],
          "internalType": "struct Domains.Transaction[]",
          "name": "",
          "type": "tuple[]"
        }
      ],
      "stateMutability": "view",
      "type": "function"
    },
    {
      "inputs": [
        {
          "internalType": "address",
          "name": "owner",
          "type": "address"
        },
        {
          "internalType": "address",
          "name": "operator",
          "type": "address"
        }
      ],
      "name": "isApprovedForAll",
      "outputs": [
        {
          "internalType": "bool",
          "name": "",
          "type": "bool"
        }
      ],
      "stateMutability": "view",
      "type": "function"
    },
    {
      "inputs": [],
      "name": "isOwner",
      "outputs": [
        {
          "internalType": "bool",
          "name": "",
          "type": "bool"
        }
      ],
      "stateMutability": "view",
      "type": "function"
    },
    {
      "inputs": [],
      "name": "name",
      "outputs": [
        {
          "internalType": "string",
          "name": "",
          "type": "string"
        }
      ],
      "stateMutability": "view",
      "type": "function"
    },
    {
      "inputs": [
        {
          "internalType": "uint256",
          "name": "",
          "type": "uint256"
        }
      ],
      "name": "names",
      "outputs": [
        {
          "internalType": "string",
          "name": "",
          "type": "string"
        }
      ],
      "stateMutability": "view",
      "type": "function"
    },
    {
      "inputs": [],
      "name": "owner",
      "outputs": [
        {
          "internalType": "address payable",
          "name": "",
          "type": "address"
        }
      ],
      "stateMutability": "view",
      "type": "function"
    },
    {
      "inputs": [
        {
          "internalType": "uint256",
          "name": "tokenId",
          "type": "uint256"
        }
      ],
      "name": "ownerOf",
      "outputs": [
        {
          "internalType": "address",
          "name": "",
          "type": "address"
        }
      ],
      "stateMutability": "view",
      "type": "function"
    },
    {
      "inputs": [
        {
          "internalType": "string",
          "name": "name",
          "type": "string"
        }
      ],
      "name": "price",
      "outputs": [
        {
          "internalType": "uint256",
          "name": "",
          "type": "uint256"
        }
      ],
      "stateMutability": "pure",
      "type": "function"
    },
    {
      "inputs": [
        {
          "internalType": "string",
          "name": "",
          "type": "string"
        }
      ],
      "name": "records",
      "outputs": [
        {
          "internalType": "string",
          "name": "",
          "type": "string"
        }
      ],
      "stateMutability": "view",
      "type": "function"
    },
    {
      "inputs": [
        {
          "internalType": "string",
          "name": "name",
          "type": "string"
        }
      ],
      "name": "register",
      "outputs": [],
      "stateMutability": "payable",
      "type": "function"
    },
    {
      "inputs": [
        {
          "internalType": "address",
          "name": "from",
          "type": "address"
        },
        {
          "internalType": "address",
          "name": "to",
          "type": "address"
        },
        {
          "internalType": "uint256",
          "name": "tokenId",
          "type": "uint256"
        }
      ],
      "name": "safeTransferFrom",
      "outputs": [],
      "stateMutability": "nonpayable",
      "type": "function"
    },
    {
      "inputs": [
        {
          "internalType": "address",
          "name": "from",
          "type": "address"
        },
        {
          "internalType": "address",
          "name": "to",
          "type": "address"
        },
        {
          "internalType": "uint256",
          "name": "tokenId",
          "type": "uint256"
        },
        {
          "internalType": "bytes",
          "name": "data",
          "type": "bytes"
        }
      ],
      "name": "safeTransferFrom",
      "outputs": [],
      "stateMutability": "nonpayable",
      "type": "function"
    },
    {
      "inputs": [
        {
          "internalType": "address",
          "name": "operator",
          "type": "address"
        },
        {
          "internalType": "bool",
          "name": "approved",
          "type": "bool"
        }
      ],
      "name": "setApprovalForAll",
      "outputs": [],
      "stateMutability": "nonpayable",
      "type": "function"
    },
    {
      "inputs": [
        {
          "internalType": "string",
          "name": "addr",
          "type": "string"
        },
        {
          "internalType": "string",
          "name": "record",
          "type": "string"
        }
      ],
      "name": "setRecord",
      "outputs": [],
      "stateMutability": "nonpayable",
      "type": "function"
    },
    {
      "inputs": [
        {
          "internalType": "address",
          "name": "from",
          "type": "address"
        },
        {
          "internalType": "string",
          "name": "txn",
          "type": "string"
        },
        {
          "internalType": "uint256",
          "name": "matic",
          "type": "uint256"
        },
        {
          "internalType": "string",
          "name": "message",
          "type": "string"
        }
      ],
      "name": "setTransaction",
      "outputs": [],
      "stateMutability": "nonpayable",
      "type": "function"
    },
    {
      "inputs": [
        {
          "internalType": "bytes4",
          "name": "interfaceId",
          "type": "bytes4"
        }
      ],
      "name": "supportsInterface",
      "outputs": [
        {
          "internalType": "bool",
          "name": "",
          "type": "bool"
        }
      ],
      "stateMutability": "view",
      "type": "function"
    },
    {
      "inputs": [],
      "name": "symbol",
      "outputs": [
        {
          "internalType": "string",
          "name": "",
          "type": "string"
        }
      ],
      "stateMutability": "view",
      "type": "function"
    },
    {
      "inputs": [],
      "name": "tld",
      "outputs": [
        {
          "internalType": "string",
          "name": "",
          "type": "string"
        }
      ],
      "stateMutability": "view",
      "type": "function"
    },
    {
      "inputs": [
        {
          "internalType": "uint256",
          "name": "tokenId",
          "type": "uint256"
        }
      ],
      "name": "tokenURI",
      "outputs": [
        {
          "internalType": "string",
          "name": "",
          "type": "string"
        }
      ],
      "stateMutability": "view",
      "type": "function"
    },
    {
      "inputs": [
        {
          "internalType": "address",
          "name": "",
          "type": "address"
        },
        {
          "internalType": "uint256",
          "name": "",
          "type": "uint256"
        }
      ],
      "name": "transactions",
      "outputs": [
        {
          "internalType": "address",
          "name": "from",
          "type": "address"
        },
        {
          "internalType": "string",
          "name": "txn",
          "type": "string"
        },
        {
          "internalType": "uint256",
          "name": "matic",
          "type": "uint256"
        },
        {
          "internalType": "string",
          "name": "message",
          "type": "string"
        },
        {
          "internalType": "uint256",
          "name": "timestamp",
          "type": "uint256"
        }
      ],
      "stateMutability": "view",
      "type": "function"
    },
    {
      "inputs": [
        {
          "internalType": "address",
          "name": "from",
          "type": "address"
        },
        {
          "internalType": "address",
          "name": "to",
          "type": "address"
        },
        {
          "internalType": "uint256",
          "name": "tokenId",
          "type": "uint256"
        }
      ],
      "name": "transferFrom",
      "outputs": [],
      "stateMutability": "nonpayable",
      "type": "function"
    },
    {
      "inputs": [
        {
          "internalType": "string",
          "name": "name",
          "type": "string"
        }
      ],
      "name": "valid",
      "outputs": [
        {
          "internalType": "bool",
          "name": "",
          "type": "bool"
        }
      ],
      "stateMutability": "pure",
      "type": "function"
    },
    {
      "inputs": [],
      "name": "withdraw",
      "outputs": [],
      "stateMutability": "nonpayable",
      "type": "function"
    }
  ],
  "bytecode": "0x6080604052604051806108a0016040528061086b815260200162005fc761086b9139600990816200003191906200051f565b506040518060400160405280600d81526020017f3c2f746578743e3c2f7376673e00000000000000000000000000000000000000815250600a90816200007891906200051f565b50604051620068323803806200683283398181016040528101906200009e91906200076a565b6040518060400160405280601381526020017f446f6d61696e204e616d652053657276696365000000000000000000000000008152506040518060400160405280600381526020017f444e53000000000000000000000000000000000000000000000000000000000081525081600090816200011b91906200051f565b5080600190816200012d91906200051f565b50505033600e60006101000a81548173ffffffffffffffffffffffffffffffffffffffff021916908373ffffffffffffffffffffffffffffffffffffffff16021790555080600890816200018291906200051f565b50620001cf6040518060400160405280601881526020017f2573206e616d652073657276696365206465706c6f796564000000000000000081525082620001d660201b620021421760201c565b5062000848565b620002788282604051602401620001ef9291906200080d565b6040516020818303038152906040527f4b5c4277000000000000000000000000000000000000000000000000000000007bffffffffffffffffffffffffffffffffffffffffffffffffffffffff19166020820180517bffffffffffffffffffffffffffffffffffffffffffffffffffffffff83818316178352505050506200027c60201b60201c565b5050565b60008151905060006a636f6e736f6c652e6c6f679050602083016000808483855afa5050505050565b600081519050919050565b7f4e487b7100000000000000000000000000000000000000000000000000000000600052604160045260246000fd5b7f4e487b7100000000000000000000000000000000000000000000000000000000600052602260045260246000fd5b600060028204905060018216806200032757607f821691505b6020821081036200033d576200033c620002df565b5b50919050565b60008190508160005260206000209050919050565b60006020601f8301049050919050565b600082821b905092915050565b600060088302620003a77fffffffffffffffffffffffffffffffffffffffffffffffffffffffffffffffff8262000368565b620003b3868362000368565b95508019841693508086168417925050509392505050565b6000819050919050565b6000819050919050565b600062000400620003fa620003f484620003cb565b620003d5565b620003cb565b9050919050565b6000819050919050565b6200041c83620003df565b620004346200042b8262000407565b84845462000375565b825550505050565b600090565b6200044b6200043c565b6200045881848462000411565b505050565b5b8181101562000480576200047460008262000441565b6001810190506200045e565b5050565b601f821115620004cf57620004998162000343565b620004a48462000358565b81016020851015620004b4578190505b620004cc620004c38562000358565b8301826200045d565b50505b505050565b600082821c905092915050565b6000620004f460001984600802620004d4565b1980831691505092915050565b60006200050f8383620004e1565b9150826002028217905092915050565b6200052a82620002a5565b67ffffffffffffffff811115620005465762000545620002b0565b5b6200055282546200030e565b6200055f82828562000484565b600060209050601f83116001811462000597576000841562000582578287015190505b6200058e858262000501565b865550620005fe565b601f198416620005a78662000343565b60005b82811015620005d157848901518255600182019150602085019450602081019050620005aa565b86831015620005f15784890151620005ed601f891682620004e1565b8355505b6001600288020188555050505b505050505050565b6000604051905090565b600080fd5b600080fd5b600080fd5b600080fd5b6000601f19601f8301169050919050565b620006408262000624565b810181811067ffffffffffffffff82111715620006625762000661620002b0565b5b80604052505050565b60006200067762000606565b905062000685828262000635565b919050565b600067ffffffffffffffff821115620006a857620006a7620002b0565b5b620006b38262000624565b9050602081019050919050565b60005b83811015620006e0578082015181840152602081019050620006c3565b60008484015250505050565b600062000703620006fd846200068a565b6200066b565b9050828152602081018484840111156200072257620007216200061f565b5b6200072f848285620006c0565b509392505050565b600082601f8301126200074f576200074e6200061a565b5b815162000761848260208601620006ec565b91505092915050565b60006020828403121562000783576200078262000610565b5b600082015167ffffffffffffffff811115620007a457620007a362000615565b5b620007b28482850162000737565b91505092915050565b600082825260208201905092915050565b6000620007d982620002a5565b620007e58185620007bb565b9350620007f7818560208601620006c0565b620008028162000624565b840191505092915050565b60006040820190508181036000830152620008298185620007cc565b905081810360208301526200083f8184620007cc565b90509392505050565b61576f80620008586000396000f3fe6080604052600436106101cd5760003560e01c806370a08231116100f7578063b88d4fde11610095578063e985e9c511610064578063e985e9c5146106fc578063f2c298be14610739578063fb825e5f14610755578063fe2c619814610780576101cd565b8063b88d4fde14610630578063bf40fac114610659578063c1880a9814610696578063c87b56dd146106bf576101cd565b80638f32d59b116100d15780638f32d59b1461057457806395d89b411461059f5780639791c097146105ca578063a22cb46514610607576101cd565b806370a08231146104e3578063804352ad146105205780638da5cb5b14610549576101cd565b806323b872dd1161016f57806342842e0e1161013e57806342842e0e146104035780634622ab031461042c578063541e771d146104695780636352211e146104a6576101cd565b806323b872dd1461035b57806326449235146103845780632d551432146103c15780633ccfd60b146103ec576101cd565b8063095ea7b3116101ab578063095ea7b3146102775780630f8cda20146102a057806311dd8845146102dd578063145381281461031a576101cd565b806301ffc9a7146101d257806306fdde031461020f578063081812fc1461023a575b600080fd5b3480156101de57600080fd5b506101f960048036038101906101f491906137e8565b6107bd565b6040516102069190613830565b60405180910390f35b34801561021b57600080fd5b5061022461089f565b60405161023191906138db565b60405180910390f35b34801561024657600080fd5b50610261600480360381019061025c9190613933565b610931565b60405161026e91906139a1565b60405180910390f35b34801561028357600080fd5b5061029e600480360381019061029991906139e8565b610977565b005b3480156102ac57600080fd5b506102c760048036038101906102c29190613a28565b610a8e565b6040516102d49190613bfc565b60405180910390f35b3480156102e957600080fd5b5061030460048036038101906102ff9190613c83565b610cba565b60405161031191906138db565b60405180910390f35b34801561032657600080fd5b50610341600480360381019061033c91906139e8565b610d6d565b604051610352959493929190613cdf565b60405180910390f35b34801561036757600080fd5b50610382600480360381019061037d9190613d40565b610ef0565b005b34801561039057600080fd5b506103ab60048036038101906103a69190613ec3565b610f50565b6040516103b891906139a1565b60405180910390f35b3480156103cd57600080fd5b506103d6610f99565b6040516103e391906138db565b60405180910390f35b3480156103f857600080fd5b50610401611027565b005b34801561040f57600080fd5b5061042a60048036038101906104259190613d40565b6110ed565b005b34801561043857600080fd5b50610453600480360381019061044e9190613933565b61110d565b60405161046091906138db565b60405180910390f35b34801561047557600080fd5b50610490600480360381019061048b9190613ec3565b6111ad565b60405161049d91906138db565b60405180910390f35b3480156104b257600080fd5b506104cd60048036038101906104c89190613933565b611263565b6040516104da91906139a1565b60405180910390f35b3480156104ef57600080fd5b5061050a60048036038101906105059190613a28565b6112e9565b6040516105179190613f0c565b60405180910390f35b34801561052c57600080fd5b5061054760048036038101906105429190613f27565b6113a0565b005b34801561055557600080fd5b5061055e6115a3565b60405161056b9190613fef565b60405180910390f35b34801561058057600080fd5b506105896115c9565b6040516105969190613830565b60405180910390f35b3480156105ab57600080fd5b506105b4611621565b6040516105c191906138db565b60405180910390f35b3480156105d657600080fd5b506105f160048036038101906105ec9190613c83565b6116b3565b6040516105fe9190613830565b60405180910390f35b34801561061357600080fd5b5061062e60048036038101906106299190614036565b611767565b005b34801561063c57600080fd5b5061065760048036038101906106529190614117565b61177d565b005b34801561066557600080fd5b50610680600480360381019061067b9190613c83565b6117df565b60405161068d91906139a1565b60405180910390f35b3480156106a257600080fd5b506106bd60048036038101906106b8919061419a565b61182a565b005b3480156106cb57600080fd5b506106e660048036038101906106e19190613933565b61189f565b6040516106f391906138db565b60405180910390f35b34801561070857600080fd5b50610723600480360381019061071e919061421b565b6119b1565b6040516107309190613830565b60405180910390f35b610753600480360381019061074e9190613c83565b611a45565b005b34801561076157600080fd5b5061076a611ec3565b604051610777919061431d565b60405180910390f35b34801561078c57600080fd5b506107a760048036038101906107a29190613c83565b6120a1565b6040516107b49190613f0c565b60405180910390f35b60007f80ac58cd000000000000000000000000000000000000000000000000000000007bffffffffffffffffffffffffffffffffffffffffffffffffffffffff1916827bffffffffffffffffffffffffffffffffffffffffffffffffffffffff1916148061088857507f5b5e139f000000000000000000000000000000000000000000000000000000007bffffffffffffffffffffffffffffffffffffffffffffffffffffffff1916827bffffffffffffffffffffffffffffffffffffffffffffffffffffffff1916145b806108985750610897826121de565b5b9050919050565b6060600080546108ae9061436e565b80601f01602080910402602001604051908101604052809291908181526020018280546108da9061436e565b80156109275780601f106108fc57610100808354040283529160200191610927565b820191906000526020600020905b81548152906001019060200180831161090a57829003601f168201915b5050505050905090565b600061093c82612248565b6004600083815260200190815260200160002060009054906101000a900473ffffffffffffffffffffffffffffffffffffffff169050919050565b600061098282611263565b90508073ffffffffffffffffffffffffffffffffffffffff168373ffffffffffffffffffffffffffffffffffffffff16036109f2576040517f08c379a00000000000000000000000000000000000000000000000000000000081526004016109e990614411565b60405180910390fd5b8073ffffffffffffffffffffffffffffffffffffffff16610a11612293565b73ffffffffffffffffffffffffffffffffffffffff161480610a405750610a3f81610a3a612293565b6119b1565b5b610a7f576040517f08c379a0000000000000000000000000000000000000000000000000000000008152600401610a76906144a3565b60405180910390fd5b610a89838361229b565b505050565b6060600d60008373ffffffffffffffffffffffffffffffffffffffff1673ffffffffffffffffffffffffffffffffffffffff168152602001908152602001600020805480602002602001604051908101604052809291908181526020016000905b82821015610caf57838290600052602060002090600502016040518060a00160405290816000820160009054906101000a900473ffffffffffffffffffffffffffffffffffffffff1673ffffffffffffffffffffffffffffffffffffffff1673ffffffffffffffffffffffffffffffffffffffff168152602001600182018054610b789061436e565b80601f0160208091040260200160405190810160405280929190818152602001828054610ba49061436e565b8015610bf15780601f10610bc657610100808354040283529160200191610bf1565b820191906000526020600020905b815481529060010190602001808311610bd457829003601f168201915b5050505050815260200160028201548152602001600382018054610c149061436e565b80601f0160208091040260200160405190810160405280929190818152602001828054610c409061436e565b8015610c8d5780601f10610c6257610100808354040283529160200191610c8d565b820191906000526020600020905b815481529060010190602001808311610c7057829003601f168201915b5050505050815260200160048201548152505081526020019060010190610aef565b505050509050919050565b6060600c8383604051610cce9291906144f3565b90815260200160405180910390208054610ce79061436e565b80601f0160208091040260200160405190810160405280929190818152602001828054610d139061436e565b8015610d605780601f10610d3557610100808354040283529160200191610d60565b820191906000526020600020905b815481529060010190602001808311610d4357829003601f168201915b5050505050905092915050565b600d6020528160005260406000208181548110610d8957600080fd5b9060005260206000209060050201600091509150508060000160009054906101000a900473ffffffffffffffffffffffffffffffffffffffff1690806001018054610dd39061436e565b80601f0160208091040260200160405190810160405280929190818152602001828054610dff9061436e565b8015610e4c5780601f10610e2157610100808354040283529160200191610e4c565b820191906000526020600020905b815481529060010190602001808311610e2f57829003601f168201915b505050505090806002015490806003018054610e679061436e565b80601f0160208091040260200160405190810160405280929190818152602001828054610e939061436e565b8015610ee05780601f10610eb557610100808354040283529160200191610ee0565b820191906000526020600020905b815481529060010190602001808311610ec357829003601f168201915b5050505050908060040154905085565b610f01610efb612293565b82612354565b610f40576040517f08c379a0000000000000000000000000000000000000000000000000000000008152600401610f379061457e565b60405180910390fd5b610f4b8383836123e9565b505050565b600b818051602081018201805184825260208301602085012081835280955050505050506000915054906101000a900473ffffffffffffffffffffffffffffffffffffffff1681565b60088054610fa69061436e565b80601f0160208091040260200160405190810160405280929190818152602001828054610fd29061436e565b801561101f5780601f10610ff45761010080835404028352916020019161101f565b820191906000526020600020905b81548152906001019060200180831161100257829003601f168201915b505050505081565b61102f6115c9565b61103857600080fd5b600047905060003373ffffffffffffffffffffffffffffffffffffffff1682604051611063906145cf565b60006040518083038185875af1925050503d80600081146110a0576040519150601f19603f3d011682016040523d82523d6000602084013e6110a5565b606091505b50509050806110e9576040517f08c379a00000000000000000000000000000000000000000000000000000000081526004016110e090614630565b60405180910390fd5b5050565b6111088383836040518060200160405280600081525061177d565b505050565b600f602052806000526040600020600091509050805461112c9061436e565b80601f01602080910402602001604051908101604052809291908181526020018280546111589061436e565b80156111a55780601f1061117a576101008083540402835291602001916111a5565b820191906000526020600020905b81548152906001019060200180831161118857829003601f168201915b505050505081565b600c8180516020810182018051848252602083016020850120818352809550505050505060009150905080546111e29061436e565b80601f016020809104026020016040519081016040528092919081815260200182805461120e9061436e565b801561125b5780601f106112305761010080835404028352916020019161125b565b820191906000526020600020905b81548152906001019060200180831161123e57829003601f168201915b505050505081565b60008061126f836126e2565b9050600073ffffffffffffffffffffffffffffffffffffffff168173ffffffffffffffffffffffffffffffffffffffff16036112e0576040517f08c379a00000000000000000000000000000000000000000000000000000000081526004016112d79061469c565b60405180910390fd5b80915050919050565b60008073ffffffffffffffffffffffffffffffffffffffff168273ffffffffffffffffffffffffffffffffffffffff1603611359576040517f08c379a00000000000000000000000000000000000000000000000000000000081526004016113509061472e565b60405180910390fd5b600360008373ffffffffffffffffffffffffffffffffffffffff1673ffffffffffffffffffffffffffffffffffffffff168152602001908152602001600020549050919050565b60006040518060a001604052808873ffffffffffffffffffffffffffffffffffffffff16815260200187878080601f016020809104026020016040519081016040528093929190818152602001838380828437600081840152601f19601f82011690508083019250505050505050815260200185815260200184848080601f016020809104026020016040519081016040528093929190818152602001838380828437600081840152601f19601f820116905080830192505050505050508152602001428152509050600d60003373ffffffffffffffffffffffffffffffffffffffff1673ffffffffffffffffffffffffffffffffffffffff16815260200190815260200160002081908060018154018082558091505060019003906000526020600020906005020160009091909190915060008201518160000160006101000a81548173ffffffffffffffffffffffffffffffffffffffff021916908373ffffffffffffffffffffffffffffffffffffffff160217905550602082015181600101908161152e91906148fa565b5060408201518160020155606082015181600301908161154e91906148fa565b5060808201518160040155505061159a6040518060400160405280601981526020017f257320686173207365742061207472616e73616374696f6e21000000000000008152503361271f565b50505050505050565b600e60009054906101000a900473ffffffffffffffffffffffffffffffffffffffff1681565b6000600e60009054906101000a900473ffffffffffffffffffffffffffffffffffffffff1673ffffffffffffffffffffffffffffffffffffffff163373ffffffffffffffffffffffffffffffffffffffff1614905090565b6060600180546116309061436e565b80601f016020809104026020016040519081016040528092919081815260200182805461165c9061436e565b80156116a95780601f1061167e576101008083540402835291602001916116a9565b820191906000526020600020905b81548152906001019060200180831161168c57829003601f168201915b5050505050905090565b6000600361170484848080601f016020809104026020016040519081016040528093929190818152602001838380828437600081840152601f19601f820116905080830192505050505050506127bb565b1015801561175f5750600a61175c84848080601f016020809104026020016040519081016040528093929190818152602001838380828437600081840152601f19601f820116905080830192505050505050506127bb565b11155b905092915050565b611779611772612293565b8383612970565b5050565b61178e611788612293565b83612354565b6117cd576040517f08c379a00000000000000000000000000000000000000000000000000000000081526004016117c49061457e565b60405180910390fd5b6117d984848484612adc565b50505050565b6000600b83836040516117f39291906144f3565b908152602001604051809103902060009054906101000a900473ffffffffffffffffffffffffffffffffffffffff16905092915050565b8181600c868660405161183e9291906144f3565b908152602001604051809103902091826118599291906149d7565b506118996040518060400160405280601481526020017f257320686173207365742061207265636f7264210000000000000000000000008152503361271f565b50505050565b60606118aa82612248565b60006006600084815260200190815260200160002080546118ca9061436e565b80601f01602080910402602001604051908101604052809291908181526020018280546118f69061436e565b80156119435780601f1061191857610100808354040283529160200191611943565b820191906000526020600020905b81548152906001019060200180831161192657829003601f168201915b505050505090506000611954612b38565b905060008151036119695781925050506119ac565b60008251111561199e578082604051602001611986929190614ad8565b604051602081830303815290604052925050506119ac565b6119a784612b4f565b925050505b919050565b6000600560008473ffffffffffffffffffffffffffffffffffffffff1673ffffffffffffffffffffffffffffffffffffffff16815260200190815260200160002060008373ffffffffffffffffffffffffffffffffffffffff1673ffffffffffffffffffffffffffffffffffffffff16815260200190815260200160002060009054906101000a900460ff16905092915050565b600073ffffffffffffffffffffffffffffffffffffffff16600b8383604051611a6f9291906144f3565b908152602001604051809103902060009054906101000a900473ffffffffffffffffffffffffffffffffffffffff1673ffffffffffffffffffffffffffffffffffffffff1614611aeb576040517f3a81d6fc00000000000000000000000000000000000000000000000000000000815260040160405180910390fd5b611af582826116b3565b611b385781816040517f7f19f48d000000000000000000000000000000000000000000000000000000008152600401611b2f929190614b29565b60405180910390fd5b6000611b4483836120a1565b905080341015611b89576040517f08c379a0000000000000000000000000000000000000000000000000000000008152600401611b8090614b99565b60405180910390fd5b600083836008604051602001611ba193929190614c88565b60405160208183030381529060405290506000600982600a604051602001611bcb93929190614cb9565b60405160208183030381529060405290506000611be86007612bb7565b90506000611c3987878080601f016020809104026020016040519081016040528093929190818152602001838380828437600081840152601f19601f820116905080830192505050505050506127bb565b90506000611c4682612bc5565b9050611d3a6040518060600160405280603181526020016156906031913989898080601f016020809104026020016040519081016040528093929190818152602001838380828437600081840152601f19601f8201169050808301925050505050505060088054611cb69061436e565b80601f0160208091040260200160405190810160405280929190818152602001828054611ce29061436e565b8015611d2f5780601f10611d0457610100808354040283529160200191611d2f565b820191906000526020600020905b815481529060010190602001808311611d1257829003601f168201915b505050505086612c93565b6000611d7086611d4987612d35565b84604051602001611d5c93929190614e66565b604051602081830303815290604052612d35565b9050600081604051602001611d859190614f0f565b6040516020818303038152906040529050611db760405180606001604052806039815260200161565760399139612e98565b611df66040518060400160405280600e81526020017f46696e616c20746f6b656e55524900000000000000000000000000000000000081525082612142565b611e176040518060600160405280603981526020016156c160399139612e98565b611e213386612f31565b611e2b8582612f4f565b33600b8b8b604051611e3e9291906144f3565b908152602001604051809103902060006101000a81548173ffffffffffffffffffffffffffffffffffffffff021916908373ffffffffffffffffffffffffffffffffffffffff1602179055508989600f60008881526020019081526020016000209182611eac9291906149d7565b50611eb76007612fbc565b50505050505050505050565b6060611f036040518060400160405280601f81526020017f47657474696e6720616c6c206e616d65732066726f6d20636f6e747261637400815250612e98565b6000611f0f6007612bb7565b67ffffffffffffffff811115611f2857611f27613d98565b5b604051908082528060200260200182016040528015611f5b57816020015b6060815260200190600190039081611f465790505b50905060005b611f6b6007612bb7565b81101561209957600f60008281526020019081526020016000208054611f909061436e565b80601f0160208091040260200160405190810160405280929190818152602001828054611fbc9061436e565b80156120095780601f10611fde57610100808354040283529160200191612009565b820191906000526020600020905b815481529060010190602001808311611fec57829003601f168201915b505050505082828151811061202157612020614f31565b5b60200260200101819052506120866040518060400160405280601781526020017f4e616d6520666f7220746f6b656e2025642069732025730000000000000000008152508284848151811061207957612078614f31565b5b6020026020010151612fd2565b808061209190614f8f565b915050611f61565b508091505090565b6000806120f184848080601f016020809104026020016040519081016040528093929190818152602001838380828437600081840152601f19601f820116905080830192505050505050506127bb565b90506000811161210057600080fd5b600381036121185766b1a2bc2ec5000091505061213c565b600481036121305766470de4df82000091505061213c565b662386f26fc100009150505b92915050565b6121da8282604051602401612158929190614fd7565b6040516020818303038152906040527f4b5c4277000000000000000000000000000000000000000000000000000000007bffffffffffffffffffffffffffffffffffffffffffffffffffffffff19166020820180517bffffffffffffffffffffffffffffffffffffffffffffffffffffffff8381831617835250505050613071565b5050565b60007f01ffc9a7000000000000000000000000000000000000000000000000000000007bffffffffffffffffffffffffffffffffffffffffffffffffffffffff1916827bffffffffffffffffffffffffffffffffffffffffffffffffffffffff1916149050919050565b6122518161309a565b612290576040517f08c379a00000000000000000000000000000000000000000000000000000000081526004016122879061469c565b60405180910390fd5b50565b600033905090565b816004600083815260200190815260200160002060006101000a81548173ffffffffffffffffffffffffffffffffffffffff021916908373ffffffffffffffffffffffffffffffffffffffff160217905550808273ffffffffffffffffffffffffffffffffffffffff1661230e83611263565b73ffffffffffffffffffffffffffffffffffffffff167f8c5be1e5ebec7d5bd14f71427d1e84f3dd0314c0f7b2291e5b200ac8c7c3b92560405160405180910390a45050565b60008061236083611263565b90508073ffffffffffffffffffffffffffffffffffffffff168473ffffffffffffffffffffffffffffffffffffffff1614806123a257506123a181856119b1565b5b806123e057508373ffffffffffffffffffffffffffffffffffffffff166123c884610931565b73ffffffffffffffffffffffffffffffffffffffff16145b91505092915050565b8273ffffffffffffffffffffffffffffffffffffffff1661240982611263565b73ffffffffffffffffffffffffffffffffffffffff161461245f576040517f08c379a000000000000000000000000000000000000000000000000000000000815260040161245690615080565b60405180910390fd5b600073ffffffffffffffffffffffffffffffffffffffff168273ffffffffffffffffffffffffffffffffffffffff16036124ce576040517f08c379a00000000000000000000000000000000000000000000000000000000081526004016124c590615112565b60405180910390fd5b6124db83838360016130db565b8273ffffffffffffffffffffffffffffffffffffffff166124fb82611263565b73ffffffffffffffffffffffffffffffffffffffff1614612551576040517f08c379a000000000000000000000000000000000000000000000000000000000815260040161254890615080565b60405180910390fd5b6004600082815260200190815260200160002060006101000a81549073ffffffffffffffffffffffffffffffffffffffff02191690556001600360008573ffffffffffffffffffffffffffffffffffffffff1673ffffffffffffffffffffffffffffffffffffffff168152602001908152602001600020600082825403925050819055506001600360008473ffffffffffffffffffffffffffffffffffffffff1673ffffffffffffffffffffffffffffffffffffffff16815260200190815260200160002060008282540192505081905550816002600083815260200190815260200160002060006101000a81548173ffffffffffffffffffffffffffffffffffffffff021916908373ffffffffffffffffffffffffffffffffffffffff160217905550808273ffffffffffffffffffffffffffffffffffffffff168473ffffffffffffffffffffffffffffffffffffffff167fddf252ad1be2c89b69c2b068fc378daa952ba7f163c4a11628f55a4df523b3ef60405160405180910390a46126dd8383836001613201565b505050565b60006002600083815260200190815260200160002060009054906101000a900473ffffffffffffffffffffffffffffffffffffffff169050919050565b6127b78282604051602401612735929190615132565b6040516020818303038152906040527f319af333000000000000000000000000000000000000000000000000000000007bffffffffffffffffffffffffffffffffffffffffffffffffffffffff19166020820180517bffffffffffffffffffffffffffffffffffffffffffffffffffffffff8381831617835250505050613071565b5050565b60008060008084519050600092505b808210156129655760008583815181106127e7576127e6614f31565b5b602001015160f81c60f81b9050608060f81b817effffffffffffffffffffffffffffffffffffffffffffffffffffffffffffff191610156128365760018361282f9190615162565b9250612951565b60e060f81b817effffffffffffffffffffffffffffffffffffffffffffffffffffffffffffff19161015612878576002836128719190615162565b9250612950565b60f060f81b817effffffffffffffffffffffffffffffffffffffffffffffffffffffffffffff191610156128ba576003836128b39190615162565b925061294f565b60f8801b817effffffffffffffffffffffffffffffffffffffffffffffffffffffffffffff191610156128fb576004836128f49190615162565b925061294e565b60fc60f81b817effffffffffffffffffffffffffffffffffffffffffffffffffffffffffffff1916101561293d576005836129369190615162565b925061294d565b60068361294a9190615162565b92505b5b5b5b5b50828061295d90614f8f565b9350506127ca565b829350505050919050565b8173ffffffffffffffffffffffffffffffffffffffff168373ffffffffffffffffffffffffffffffffffffffff16036129de576040517f08c379a00000000000000000000000000000000000000000000000000000000081526004016129d5906151e2565b60405180910390fd5b80600560008573ffffffffffffffffffffffffffffffffffffffff1673ffffffffffffffffffffffffffffffffffffffff16815260200190815260200160002060008473ffffffffffffffffffffffffffffffffffffffff1673ffffffffffffffffffffffffffffffffffffffff16815260200190815260200160002060006101000a81548160ff0219169083151502179055508173ffffffffffffffffffffffffffffffffffffffff168373ffffffffffffffffffffffffffffffffffffffff167f17307eab39ab6107e8899845ad3d59bd9653f200f220920489ca2b5937696c3183604051612acf9190613830565b60405180910390a3505050565b612ae78484846123e9565b612af384848484613207565b612b32576040517f08c379a0000000000000000000000000000000000000000000000000000000008152600401612b2990615274565b60405180910390fd5b50505050565b606060405180602001604052806000815250905090565b6060612b5a82612248565b6000612b64612b38565b90506000815111612b845760405180602001604052806000815250612baf565b80612b8e84612bc5565b604051602001612b9f929190614ad8565b6040516020818303038152906040525b915050919050565b600081600001549050919050565b606060006001612bd48461338e565b01905060008167ffffffffffffffff811115612bf357612bf2613d98565b5b6040519080825280601f01601f191660200182016040528015612c255781602001600182028036833780820191505090505b509050600082602001820190505b600115612c88578080600190039150507f3031323334353637383961626364656600000000000000000000000000000000600a86061a8153600a8581612c7c57612c7b615294565b5b04945060008503612c33575b819350505050919050565b612d2f84848484604051602401612cad94939291906152c3565b6040516020818303038152906040527f8eafb02b000000000000000000000000000000000000000000000000000000007bffffffffffffffffffffffffffffffffffffffffffffffffffffffff19166020820180517bffffffffffffffffffffffffffffffffffffffffffffffffffffffff8381831617835250505050613071565b50505050565b60606000825103612d5757604051806020016040528060008152509050612e93565b60006040518060600160405280604081526020016156fa6040913990506000600360028551612d869190615162565b612d90919061531d565b6004612d9c919061534e565b67ffffffffffffffff811115612db557612db4613d98565b5b6040519080825280601f01601f191660200182016040528015612de75781602001600182028036833780820191505090505b509050600182016020820185865187015b80821015612e53576003820191508151603f8160121c168501518453600184019350603f81600c1c168501518453600184019350603f8160061c168501518453600184019350603f8116850151845360018401935050612df8565b5050600386510660018114612e6f5760028114612e8257612e8a565b603d6001830353603d6002830353612e8a565b603d60018303535b50505080925050505b919050565b612f2e81604051602401612eac91906138db565b6040516020818303038152906040527f41304fac000000000000000000000000000000000000000000000000000000007bffffffffffffffffffffffffffffffffffffffffffffffffffffffff19166020820180517bffffffffffffffffffffffffffffffffffffffffffffffffffffffff8381831617835250505050613071565b50565b612f4b8282604051806020016040528060008152506134e1565b5050565b612f588261309a565b612f97576040517f08c379a0000000000000000000000000000000000000000000000000000000008152600401612f8e90615402565b60405180910390fd5b80600660008481526020019081526020016000209081612fb791906148fa565b505050565b6001816000016000828254019250508190555050565b61306c838383604051602401612fea93929190615422565b6040516020818303038152906040527f5970e089000000000000000000000000000000000000000000000000000000007bffffffffffffffffffffffffffffffffffffffffffffffffffffffff19166020820180517bffffffffffffffffffffffffffffffffffffffffffffffffffffffff8381831617835250505050613071565b505050565b60008151905060006a636f6e736f6c652e6c6f679050602083016000808483855afa5050505050565b60008073ffffffffffffffffffffffffffffffffffffffff166130bc836126e2565b73ffffffffffffffffffffffffffffffffffffffff1614159050919050565b60018111156131fb57600073ffffffffffffffffffffffffffffffffffffffff168473ffffffffffffffffffffffffffffffffffffffff161461316f5780600360008673ffffffffffffffffffffffffffffffffffffffff1673ffffffffffffffffffffffffffffffffffffffff16815260200190815260200160002060008282546131679190615467565b925050819055505b600073ffffffffffffffffffffffffffffffffffffffff168373ffffffffffffffffffffffffffffffffffffffff16146131fa5780600360008573ffffffffffffffffffffffffffffffffffffffff1673ffffffffffffffffffffffffffffffffffffffff16815260200190815260200160002060008282546131f29190615162565b925050819055505b5b50505050565b50505050565b60006132288473ffffffffffffffffffffffffffffffffffffffff1661353c565b15613381578373ffffffffffffffffffffffffffffffffffffffff1663150b7a02613251612293565b8786866040518563ffffffff1660e01b815260040161327394939291906154f0565b6020604051808303816000875af19250505080156132af57506040513d601f19601f820116820180604052508101906132ac9190615551565b60015b613331573d80600081146132df576040519150601f19603f3d011682016040523d82523d6000602084013e6132e4565b606091505b506000815103613329576040517f08c379a000000000000000000000000000000000000000000000000000000000815260040161332090615274565b60405180910390fd5b805181602001fd5b63150b7a0260e01b7bffffffffffffffffffffffffffffffffffffffffffffffffffffffff1916817bffffffffffffffffffffffffffffffffffffffffffffffffffffffff191614915050613386565b600190505b949350505050565b600080600090507a184f03e93ff9f4daa797ed6e38ed64bf6a1f01000000000000000083106133ec577a184f03e93ff9f4daa797ed6e38ed64bf6a1f01000000000000000083816133e2576133e1615294565b5b0492506040810190505b6d04ee2d6d415b85acef81000000008310613429576d04ee2d6d415b85acef8100000000838161341f5761341e615294565b5b0492506020810190505b662386f26fc10000831061345857662386f26fc10000838161344e5761344d615294565b5b0492506010810190505b6305f5e1008310613481576305f5e100838161347757613476615294565b5b0492506008810190505b61271083106134a657612710838161349c5761349b615294565b5b0492506004810190505b606483106134c957606483816134bf576134be615294565b5b0492506002810190505b600a83106134d8576001810190505b80915050919050565b6134eb838361355f565b6134f86000848484613207565b613537576040517f08c379a000000000000000000000000000000000000000000000000000000000815260040161352e90615274565b60405180910390fd5b505050565b6000808273ffffffffffffffffffffffffffffffffffffffff163b119050919050565b600073ffffffffffffffffffffffffffffffffffffffff168273ffffffffffffffffffffffffffffffffffffffff16036135ce576040517f08c379a00000000000000000000000000000000000000000000000000000000081526004016135c5906155ca565b60405180910390fd5b6135d78161309a565b15613617576040517f08c379a000000000000000000000000000000000000000000000000000000000815260040161360e90615636565b60405180910390fd5b6136256000838360016130db565b61362e8161309a565b1561366e576040517f08c379a000000000000000000000000000000000000000000000000000000000815260040161366590615636565b60405180910390fd5b6001600360008473ffffffffffffffffffffffffffffffffffffffff1673ffffffffffffffffffffffffffffffffffffffff16815260200190815260200160002060008282540192505081905550816002600083815260200190815260200160002060006101000a81548173ffffffffffffffffffffffffffffffffffffffff021916908373ffffffffffffffffffffffffffffffffffffffff160217905550808273ffffffffffffffffffffffffffffffffffffffff16600073ffffffffffffffffffffffffffffffffffffffff167fddf252ad1be2c89b69c2b068fc378daa952ba7f163c4a11628f55a4df523b3ef60405160405180910390a4613778600083836001613201565b5050565b6000604051905090565b600080fd5b600080fd5b60007fffffffff0000000000000000000000000000000000000000000000000000000082169050919050565b6137c581613790565b81146137d057600080fd5b50565b6000813590506137e2816137bc565b92915050565b6000602082840312156137fe576137fd613786565b5b600061380c848285016137d3565b91505092915050565b60008115159050919050565b61382a81613815565b82525050565b60006020820190506138456000830184613821565b92915050565b600081519050919050565b600082825260208201905092915050565b60005b8381101561388557808201518184015260208101905061386a565b60008484015250505050565b6000601f19601f8301169050919050565b60006138ad8261384b565b6138b78185613856565b93506138c7818560208601613867565b6138d081613891565b840191505092915050565b600060208201905081810360008301526138f581846138a2565b905092915050565b6000819050919050565b613910816138fd565b811461391b57600080fd5b50565b60008135905061392d81613907565b92915050565b60006020828403121561394957613948613786565b5b60006139578482850161391e565b91505092915050565b600073ffffffffffffffffffffffffffffffffffffffff82169050919050565b600061398b82613960565b9050919050565b61399b81613980565b82525050565b60006020820190506139b66000830184613992565b92915050565b6139c581613980565b81146139d057600080fd5b50565b6000813590506139e2816139bc565b92915050565b600080604083850312156139ff576139fe613786565b5b6000613a0d858286016139d3565b9250506020613a1e8582860161391e565b9150509250929050565b600060208284031215613a3e57613a3d613786565b5b6000613a4c848285016139d3565b91505092915050565b600081519050919050565b600082825260208201905092915050565b6000819050602082019050919050565b613a8a81613980565b82525050565b600082825260208201905092915050565b6000613aac8261384b565b613ab68185613a90565b9350613ac6818560208601613867565b613acf81613891565b840191505092915050565b613ae3816138fd565b82525050565b600060a083016000830151613b016000860182613a81565b5060208301518482036020860152613b198282613aa1565b9150506040830151613b2e6040860182613ada565b5060608301518482036060860152613b468282613aa1565b9150506080830151613b5b6080860182613ada565b508091505092915050565b6000613b728383613ae9565b905092915050565b6000602082019050919050565b6000613b9282613a55565b613b9c8185613a60565b935083602082028501613bae85613a71565b8060005b85811015613bea5784840389528151613bcb8582613b66565b9450613bd683613b7a565b925060208a01995050600181019050613bb2565b50829750879550505050505092915050565b60006020820190508181036000830152613c168184613b87565b905092915050565b600080fd5b600080fd5b600080fd5b60008083601f840112613c4357613c42613c1e565b5b8235905067ffffffffffffffff811115613c6057613c5f613c23565b5b602083019150836001820283011115613c7c57613c7b613c28565b5b9250929050565b60008060208385031215613c9a57613c99613786565b5b600083013567ffffffffffffffff811115613cb857613cb761378b565b5b613cc485828601613c2d565b92509250509250929050565b613cd9816138fd565b82525050565b600060a082019050613cf46000830188613992565b8181036020830152613d0681876138a2565b9050613d156040830186613cd0565b8181036060830152613d2781856138a2565b9050613d366080830184613cd0565b9695505050505050565b600080600060608486031215613d5957613d58613786565b5b6000613d67868287016139d3565b9350506020613d78868287016139d3565b9250506040613d898682870161391e565b9150509250925092565b600080fd5b7f4e487b7100000000000000000000000000000000000000000000000000000000600052604160045260246000fd5b613dd082613891565b810181811067ffffffffffffffff82111715613def57613dee613d98565b5b80604052505050565b6000613e0261377c565b9050613e0e8282613dc7565b919050565b600067ffffffffffffffff821115613e2e57613e2d613d98565b5b613e3782613891565b9050602081019050919050565b82818337600083830152505050565b6000613e66613e6184613e13565b613df8565b905082815260208101848484011115613e8257613e81613d93565b5b613e8d848285613e44565b509392505050565b600082601f830112613eaa57613ea9613c1e565b5b8135613eba848260208601613e53565b91505092915050565b600060208284031215613ed957613ed8613786565b5b600082013567ffffffffffffffff811115613ef757613ef661378b565b5b613f0384828501613e95565b91505092915050565b6000602082019050613f216000830184613cd0565b92915050565b60008060008060008060808789031215613f4457613f43613786565b5b6000613f5289828a016139d3565b965050602087013567ffffffffffffffff811115613f7357613f7261378b565b5b613f7f89828a01613c2d565b95509550506040613f9289828a0161391e565b935050606087013567ffffffffffffffff811115613fb357613fb261378b565b5b613fbf89828a01613c2d565b92509250509295509295509295565b6000613fd982613960565b9050919050565b613fe981613fce565b82525050565b60006020820190506140046000830184613fe0565b92915050565b61401381613815565b811461401e57600080fd5b50565b6000813590506140308161400a565b92915050565b6000806040838503121561404d5761404c613786565b5b600061405b858286016139d3565b925050602061406c85828601614021565b9150509250929050565b600067ffffffffffffffff82111561409157614090613d98565b5b61409a82613891565b9050602081019050919050565b60006140ba6140b584614076565b613df8565b9050828152602081018484840111156140d6576140d5613d93565b5b6140e1848285613e44565b509392505050565b600082601f8301126140fe576140fd613c1e565b5b813561410e8482602086016140a7565b91505092915050565b6000806000806080858703121561413157614130613786565b5b600061413f878288016139d3565b9450506020614150878288016139d3565b93505060406141618782880161391e565b925050606085013567ffffffffffffffff8111156141825761418161378b565b5b61418e878288016140e9565b91505092959194509250565b600080600080604085870312156141b4576141b3613786565b5b600085013567ffffffffffffffff8111156141d2576141d161378b565b5b6141de87828801613c2d565b9450945050602085013567ffffffffffffffff8111156142015761420061378b565b5b61420d87828801613c2d565b925092505092959194509250565b6000806040838503121561423257614231613786565b5b6000614240858286016139d3565b9250506020614251858286016139d3565b9150509250929050565b600081519050919050565b600082825260208201905092915050565b6000819050602082019050919050565b60006142938383613aa1565b905092915050565b6000602082019050919050565b60006142b38261425b565b6142bd8185614266565b9350836020820285016142cf85614277565b8060005b8581101561430b57848403895281516142ec8582614287565b94506142f78361429b565b925060208a019950506001810190506142d3565b50829750879550505050505092915050565b6000602082019050818103600083015261433781846142a8565b905092915050565b7f4e487b7100000000000000000000000000000000000000000000000000000000600052602260045260246000fd5b6000600282049050600182168061438657607f821691505b6020821081036143995761439861433f565b5b50919050565b7f4552433732313a20617070726f76616c20746f2063757272656e74206f776e6560008201527f7200000000000000000000000000000000000000000000000000000000000000602082015250565b60006143fb602183613856565b91506144068261439f565b604082019050919050565b6000602082019050818103600083015261442a816143ee565b9050919050565b7f4552433732313a20617070726f76652063616c6c6572206973206e6f7420746f60008201527f6b656e206f776e6572206f7220617070726f76656420666f7220616c6c000000602082015250565b600061448d603d83613856565b915061449882614431565b604082019050919050565b600060208201905081810360008301526144bc81614480565b9050919050565b600081905092915050565b60006144da83856144c3565b93506144e7838584613e44565b82840190509392505050565b60006145008284866144ce565b91508190509392505050565b7f4552433732313a2063616c6c6572206973206e6f7420746f6b656e206f776e6560008201527f72206f7220617070726f76656400000000000000000000000000000000000000602082015250565b6000614568602d83613856565b91506145738261450c565b604082019050919050565b600060208201905081810360008301526145978161455b565b9050919050565b600081905092915050565b50565b60006145b960008361459e565b91506145c4826145a9565b600082019050919050565b60006145da826145ac565b9150819050919050565b7f4661696c656420746f207769746864726177204d617469630000000000000000600082015250565b600061461a601883613856565b9150614625826145e4565b602082019050919050565b600060208201905081810360008301526146498161460d565b9050919050565b7f4552433732313a20696e76616c696420746f6b656e2049440000000000000000600082015250565b6000614686601883613856565b915061469182614650565b602082019050919050565b600060208201905081810360008301526146b581614679565b9050919050565b7f4552433732313a2061646472657373207a65726f206973206e6f74206120766160008201527f6c6964206f776e65720000000000000000000000000000000000000000000000602082015250565b6000614718602983613856565b9150614723826146bc565b604082019050919050565b600060208201905081810360008301526147478161470b565b9050919050565b60008190508160005260206000209050919050565b60006020601f8301049050919050565b600082821b905092915050565b6000600883026147b07fffffffffffffffffffffffffffffffffffffffffffffffffffffffffffffffff82614773565b6147ba8683614773565b95508019841693508086168417925050509392505050565b6000819050919050565b60006147f76147f26147ed846138fd565b6147d2565b6138fd565b9050919050565b6000819050919050565b614811836147dc565b61482561481d826147fe565b848454614780565b825550505050565b600090565b61483a61482d565b614845818484614808565b505050565b5b818110156148695761485e600082614832565b60018101905061484b565b5050565b601f8211156148ae5761487f8161474e565b61488884614763565b81016020851015614897578190505b6148ab6148a385614763565b83018261484a565b50505b505050565b600082821c905092915050565b60006148d1600019846008026148b3565b1980831691505092915050565b60006148ea83836148c0565b9150826002028217905092915050565b6149038261384b565b67ffffffffffffffff81111561491c5761491b613d98565b5b614926825461436e565b61493182828561486d565b600060209050601f8311600181146149645760008415614952578287015190505b61495c85826148de565b8655506149c4565b601f1984166149728661474e565b60005b8281101561499a57848901518255600182019150602085019450602081019050614975565b868310156149b757848901516149b3601f8916826148c0565b8355505b6001600288020188555050505b505050505050565b600082905092915050565b6149e183836149cc565b67ffffffffffffffff8111156149fa576149f9613d98565b5b614a04825461436e565b614a0f82828561486d565b6000601f831160018114614a3e5760008415614a2c578287013590505b614a3685826148de565b865550614a9e565b601f198416614a4c8661474e565b60005b82811015614a7457848901358255600182019150602085019450602081019050614a4f565b86831015614a915784890135614a8d601f8916826148c0565b8355505b6001600288020188555050505b50505050505050565b6000614ab28261384b565b614abc81856144c3565b9350614acc818560208601613867565b80840191505092915050565b6000614ae48285614aa7565b9150614af08284614aa7565b91508190509392505050565b6000614b088385613856565b9350614b15838584613e44565b614b1e83613891565b840190509392505050565b60006020820190508181036000830152614b44818486614afc565b90509392505050565b7f4e6f7420656e6f756768206d6174696320706169640000000000000000000000600082015250565b6000614b83601583613856565b9150614b8e82614b4d565b602082019050919050565b60006020820190508181036000830152614bb281614b76565b9050919050565b7f2e00000000000000000000000000000000000000000000000000000000000000600082015250565b6000614bef6001836144c3565b9150614bfa82614bb9565b600182019050919050565b60008154614c128161436e565b614c1c81866144c3565b94506001821660008114614c375760018114614c4c57614c7f565b60ff1983168652811515820286019350614c7f565b614c558561474e565b60005b83811015614c7757815481890152600182019150602081019050614c58565b838801955050505b50505092915050565b6000614c958285876144ce565b9150614ca082614be2565b9150614cac8284614c05565b9150819050949350505050565b6000614cc58286614c05565b9150614cd18285614aa7565b9150614cdd8284614c05565b9150819050949350505050565b7f7b226e616d65223a202200000000000000000000000000000000000000000000600082015250565b6000614d20600a836144c3565b9150614d2b82614cea565b600a82019050919050565b7f222c20226465736372697074696f6e223a20224120646f6d61696e206f6e207460008201527f686520646f6d61696e206e616d652073657276696365222c2022696d6167652260208201527f3a2022646174613a696d6167652f7376672b786d6c3b6261736536342c000000604082015250565b6000614db8605d836144c3565b9150614dc382614d36565b605d82019050919050565b7f222c226c656e677468223a220000000000000000000000000000000000000000600082015250565b6000614e04600c836144c3565b9150614e0f82614dce565b600c82019050919050565b7f227d000000000000000000000000000000000000000000000000000000000000600082015250565b6000614e506002836144c3565b9150614e5b82614e1a565b600282019050919050565b6000614e7182614d13565b9150614e7d8286614aa7565b9150614e8882614dab565b9150614e948285614aa7565b9150614e9f82614df7565b9150614eab8284614aa7565b9150614eb682614e43565b9150819050949350505050565b7f646174613a6170706c69636174696f6e2f6a736f6e3b6261736536342c000000600082015250565b6000614ef9601d836144c3565b9150614f0482614ec3565b601d82019050919050565b6000614f1a82614eec565b9150614f268284614aa7565b915081905092915050565b7f4e487b7100000000000000000000000000000000000000000000000000000000600052603260045260246000fd5b7f4e487b7100000000000000000000000000000000000000000000000000000000600052601160045260246000fd5b6000614f9a826138fd565b91507fffffffffffffffffffffffffffffffffffffffffffffffffffffffffffffffff8203614fcc57614fcb614f60565b5b600182019050919050565b60006040820190508181036000830152614ff181856138a2565b9050818103602083015261500581846138a2565b90509392505050565b7f4552433732313a207472616e736665722066726f6d20696e636f72726563742060008201527f6f776e6572000000000000000000000000000000000000000000000000000000602082015250565b600061506a602583613856565b91506150758261500e565b604082019050919050565b600060208201905081810360008301526150998161505d565b9050919050565b7f4552433732313a207472616e7366657220746f20746865207a65726f2061646460008201527f7265737300000000000000000000000000000000000000000000000000000000602082015250565b60006150fc602483613856565b9150615107826150a0565b604082019050919050565b6000602082019050818103600083015261512b816150ef565b9050919050565b6000604082019050818103600083015261514c81856138a2565b905061515b6020830184613992565b9392505050565b600061516d826138fd565b9150615178836138fd565b92508282019050808211156151905761518f614f60565b5b92915050565b7f4552433732313a20617070726f766520746f2063616c6c657200000000000000600082015250565b60006151cc601983613856565b91506151d782615196565b602082019050919050565b600060208201905081810360008301526151fb816151bf565b9050919050565b7f4552433732313a207472616e7366657220746f206e6f6e20455243373231526560008201527f63656976657220696d706c656d656e7465720000000000000000000000000000602082015250565b600061525e603283613856565b915061526982615202565b604082019050919050565b6000602082019050818103600083015261528d81615251565b9050919050565b7f4e487b7100000000000000000000000000000000000000000000000000000000600052601260045260246000fd5b600060808201905081810360008301526152dd81876138a2565b905081810360208301526152f181866138a2565b9050818103604083015261530581856138a2565b90506153146060830184613cd0565b95945050505050565b6000615328826138fd565b9150615333836138fd565b92508261534357615342615294565b5b828204905092915050565b6000615359826138fd565b9150615364836138fd565b9250828202615372816138fd565b9150828204841483151761538957615388614f60565b5b5092915050565b7f45524337323155524953746f726167653a2055524920736574206f66206e6f6e60008201527f6578697374656e7420746f6b656e000000000000000000000000000000000000602082015250565b60006153ec602e83613856565b91506153f782615390565b604082019050919050565b6000602082019050818103600083015261541b816153df565b9050919050565b6000606082019050818103600083015261543c81866138a2565b905061544b6020830185613cd0565b818103604083015261545d81846138a2565b9050949350505050565b6000615472826138fd565b915061547d836138fd565b925082820390508181111561549557615494614f60565b5b92915050565b600081519050919050565b600082825260208201905092915050565b60006154c28261549b565b6154cc81856154a6565b93506154dc818560208601613867565b6154e581613891565b840191505092915050565b60006080820190506155056000830187613992565b6155126020830186613992565b61551f6040830185613cd0565b818103606083015261553181846154b7565b905095945050505050565b60008151905061554b816137bc565b92915050565b60006020828403121561556757615566613786565b5b60006155758482850161553c565b91505092915050565b7f4552433732313a206d696e7420746f20746865207a65726f2061646472657373600082015250565b60006155b4602083613856565b91506155bf8261557e565b602082019050919050565b600060208201905081810360008301526155e3816155a7565b9050919050565b7f4552433732313a20746f6b656e20616c7265616479206d696e74656400000000600082015250565b6000615620601c83613856565b915061562b826155ea565b602082019050919050565b6000602082019050818103600083015261564f81615613565b905091905056fe0a2d2d2d2d2d2d2d2d2d2d2d2d2d2d2d2d2d2d2d2d2d2d2d2d2d2d2d2d2d2d2d2d2d2d2d2d2d2d2d2d2d2d2d2d2d2d2d2d2d2d2d2d2d2d2d2d5265676973746572696e672025732e2573206f6e2074686520636f6e7472616374207769746820746f6b656e49442025642d2d2d2d2d2d2d2d2d2d2d2d2d2d2d2d2d2d2d2d2d2d2d2d2d2d2d2d2d2d2d2d2d2d2d2d2d2d2d2d2d2d2d2d2d2d2d2d2d2d2d2d2d2d2d2d0a4142434445464748494a4b4c4d4e4f505152535455565758595a6162636465666768696a6b6c6d6e6f707172737475767778797a303132333435363738392b2fa264697066735822122090c3f62a8b42247764b42e679dbd26dd9699b4e1a05c44bc97ebe26deafa056964736f6c634300081100333c73766720786d6c6e733d22687474703a2f2f7777772e77332e6f72672f323030302f737667222077696474683d2232373022206865696768743d22323730222066696c6c3d226e6f6e65223e3c706174682066696c6c3d2275726c282342292220643d224d302030683237307632373048307a222f3e3c646566733e3c66696c7465722069643d22412220636f6c6f722d696e746572706f6c6174696f6e2d66696c746572733d2273524742222066696c746572556e6974733d227573657253706163654f6e55736522206865696768743d22323730222077696474683d22323730223e3c666544726f70536861646f772064783d2230222064793d22312220737464446576696174696f6e3d22322220666c6f6f642d6f7061636974793d222e323235222077696474683d223230302522206865696768743d2232303025222f3e3c2f66696c7465723e3c2f646566733e3c7061746820643d224d37322e3836332034322e393439632d2e3636382d2e3338372d312e3432362d2e35392d322e3139372d2e3539732d312e3532392e3230342d322e3139372e35396c2d31302e30383120362e3033322d362e383520332e3933342d31302e30383120362e303332632d2e3636382e3338372d312e3432362e35392d322e3139372e3539732d312e3532392d2e3230342d322e3139372d2e35396c2d382e3031332d342e37323161342e353220342e35322030203020312d312e3538392d312e363136632d2e3338342d2e3636352d2e3539342d312e3431382d2e3630382d322e313837762d392e3331632d2e3031332d2e3737352e3138352d312e3533382e3537322d322e32303861342e323520342e323520302030203120312e3632352d312e3539356c372e3838342d342e3539632e3636382d2e33383720312e3432362d2e353920322e3139372d2e353973312e3532392e32303420322e3139372e35396c372e38383420342e353961342e353220342e353220302030203120312e35383920312e363136632e3338342e3636352e35393420312e3431382e36303820322e31383776362e3033326c362e38352d342e303635762d362e303332632e3031332d2e3737352d2e3138352d312e3533382d2e3537322d322e32303861342e323520342e32352030203020302d312e3632352d312e3539354c34312e3435362032342e3539632d2e3636382d2e3338372d312e3432362d2e35392d322e3139372d2e3539732d312e3532392e3230342d322e3139372e35396c2d31342e38363420382e36353561342e323520342e32352030203020302d312e36323520312e353935632d2e3338372e36372d2e35383520312e3433342d2e35373220322e3230387631372e343431632d2e3031332e3737352e31383520312e3533382e35373220322e32303861342e323520342e323520302030203020312e36323520312e3539356c31342e38363420382e363535632e3636382e33383720312e3432362e353920322e3139372e353973312e3532392d2e32303420322e3139372d2e35396c31302e3038312d352e39303120362e38352d342e3036352031302e3038312d352e393031632e3636382d2e33383720312e3432362d2e353920322e3139372d2e353973312e3532392e32303420322e3139372e35396c372e38383420342e353961342e353220342e353220302030203120312e35383920312e363136632e3338342e3636352e35393420312e3431382e36303820322e31383776392e333131632e3031332e3737352d2e31383520312e3533382d2e35373220322e32303861342e323520342e32352030203020312d312e36323520312e3539356c2d372e38383420342e373231632d2e3636382e3338372d312e3432362e35392d322e3139372e3539732d312e3532392d2e3230342d322e3139372d2e35396c2d372e3838342d342e353961342e353220342e35322030203020312d312e3538392d312e363136632d2e3338352d2e3636352d2e3539342d312e3431382d2e3630382d322e313837762d362e3033326c2d362e383520342e30363576362e303332632d2e3031332e3737352e31383520312e3533382e35373220322e32303861342e323520342e323520302030203020312e36323520312e3539356c31342e38363420382e363535632e3636382e33383720312e3432362e353920322e3139372e353973312e3532392d2e32303420322e3139372d2e35396c31342e3836342d382e363535632e3635372d2e33393420312e3230342d2e393520312e3538392d312e363136732e3539342d312e3431382e3630392d322e3138375635352e353338632e3031332d2e3737352d2e3138352d312e3533382d2e3537322d322e32303861342e323520342e32352030203020302d312e3632352d312e3539356c2d31342e3939332d382e3738367a222066696c6c3d2223666666222f3e3c646566733e3c6c696e6561724772616469656e742069643d2242222078313d2230222079313d2230222078323d22323730222079323d2232373022206772616469656e74556e6974733d227573657253706163654f6e557365223e3c73746f702073746f702d636f6c6f723d2223636235656565222f3e3c73746f70206f66667365743d2231222073746f702d636f6c6f723d2223306364376534222073746f702d6f7061636974793d222e3939222f3e3c2f6c696e6561724772616469656e743e3c2f646566733e3c7465787420783d2233322e352220793d223233312220666f6e742d73697a653d223237222066696c6c3d2223666666222066696c7465723d2275726c282341292220666f6e742d66616d696c793d22506c7573204a616b617274612053616e732c44656a6156752053616e732c4e6f746f20436f6c6f7220456d6f6a692c4170706c6520436f6c6f7220456d6f6a692c73616e732d73657269662220666f6e742d7765696768743d22626f6c64223e",
  "linkReferences": {},
  "deployedLinkReferences": {}
}